{
  "contractName": "Trust",
  "abi": [
    {
      "constant": true,
      "inputs": [],
      "name": "payment",
      "outputs": [
        {
          "name": "",
          "type": "uint256"
        }
      ],
      "payable": false,
      "stateMutability": "view",
      "type": "function"
    },
    {
      "inputs": [],
      "payable": true,
      "stateMutability": "payable",
      "type": "constructor"
    },
    {
      "constant": false,
      "inputs": [],
      "name": "withDraw",
      "outputs": [],
      "payable": false,
      "stateMutability": "nonpayable",
      "type": "function"
    },
    {
      "constant": true,
      "inputs": [],
      "name": "balance",
      "outputs": [
        {
          "name": "",
          "type": "uint256"
        }
      ],
      "payable": false,
      "stateMutability": "view",
      "type": "function"
    }
  ],
  "bytecode": "0x608060405242600255600060035533600160006101000a81548173ffffffffffffffffffffffffffffffffffffffff021916908373ffffffffffffffffffffffffffffffffffffffff16021790555034600081905550600a60005481151561006357fe5b046003819055506101df806100796000396000f300608060405260043610610057576000357c0100000000000000000000000000000000000000000000000000000000900463ffffffff1680630fdb1c101461005c57806342f6487a14610073578063b69ef8a81461009e575b600080fd5b34801561006857600080fd5b506100716100c9565b005b34801561007f57600080fd5b5061008861018e565b6040518082815260200191505060405180910390f35b3480156100aa57600080fd5b506100b3610194565b6040518082815260200191505060405180910390f35b3373ffffffffffffffffffffffffffffffffffffffff16600160009054906101000a900473ffffffffffffffffffffffffffffffffffffffff1673ffffffffffffffffffffffffffffffffffffffff1614151561012557600080fd5b603c60025401421015151561013957600080fd5b603c42016002819055503373ffffffffffffffffffffffffffffffffffffffff166108fc6003549081150290604051600060405180830381858888f1935050505015801561018b573d6000803e3d6000fd5b50565b60035481565b60003073ffffffffffffffffffffffffffffffffffffffff16319050905600a165627a7a72305820a17f4d1caa5e9bb25746a37240f88ac2f01b76a487fb9968ab0c28addce0f41f0029",
  "source": "pragma solidity ^0.4.24;\n\ncontract Trust {\n\n    uint amount;\n    address owner;\n    uint timeInterval = now;\n    uint public payment = 0;\n\n    modifier onlyOwner {\n        require(owner == msg.sender);\n        _;\n    }\n\n    modifier timeForPayment {\n        require(now >= timeInterval + 1 minutes);\n        timeInterval = now + 1 minutes;\n        _;\n    }\n\n    constructor () public payable {\n        owner = msg.sender;\n        amount = msg.value;\n        payment = amount / 10;\n    }\n\n    function withDraw() onlyOwner timeForPayment public {\n        msg.sender.transfer(payment);\n\n    }\n\n    function balance() public view returns (uint) {\n        return address(this).balance;\n    }\n}\n",
  "sourcePath": "/Users/spar/truffle/trust/contracts/Trust.sol",
  "compiler": {
    "name": "solc",
    "version": "0.4.24+commit.e67f0147.Emscripten.clang"
  },
  "schemaVersion": "2.0.1",
  "updatedAt": "2018-11-25T00:20:36.547Z"
}