{
  "contractName": "Trust",
  "abi": [
    {
      "constant": true,
      "inputs": [],
      "name": "payment",
      "outputs": [
        {
          "name": "",
          "type": "uint256"
        }
      ],
      "payable": false,
      "stateMutability": "view",
      "type": "function"
    },
    {
      "constant": true,
      "inputs": [],
      "name": "amount",
      "outputs": [
        {
          "name": "",
          "type": "uint256"
        }
      ],
      "payable": false,
      "stateMutability": "view",
      "type": "function"
    },
    {
      "constant": false,
      "inputs": [],
      "name": "initialAmount",
      "outputs": [],
      "payable": true,
      "stateMutability": "payable",
      "type": "function"
    },
    {
      "constant": false,
      "inputs": [],
      "name": "withDraw",
      "outputs": [],
      "payable": false,
      "stateMutability": "nonpayable",
      "type": "function"
    },
    {
      "constant": true,
      "inputs": [],
      "name": "balance",
      "outputs": [
        {
          "name": "",
          "type": "uint256"
        }
      ],
      "payable": false,
      "stateMutability": "view",
      "type": "function"
    }
  ],
  "bytecode": "0x608060405260786000554260025534801561001957600080fd5b5061028f806100296000396000f30060806040526004361061006d576000357c0100000000000000000000000000000000000000000000000000000000900463ffffffff1680630fdb1c101461007257806342f6487a14610089578063aa8c217c146100b4578063b69ef8a8146100df578063fc1ed4371461010a575b600080fd5b34801561007e57600080fd5b50610087610114565b005b34801561009557600080fd5b5061009e6101d9565b6040518082815260200191505060405180910390f35b3480156100c057600080fd5b506100c96101df565b6040518082815260200191505060405180910390f35b3480156100eb57600080fd5b506100f46101e5565b6040518082815260200191505060405180910390f35b610112610204565b005b3373ffffffffffffffffffffffffffffffffffffffff16600160009054906101000a900473ffffffffffffffffffffffffffffffffffffffff1673ffffffffffffffffffffffffffffffffffffffff1614151561017057600080fd5b603c60025401421015151561018457600080fd5b603c42016002819055503373ffffffffffffffffffffffffffffffffffffffff166108fc6003549081150290604051600060405180830381858888f193505050501580156101d6573d6000803e3d6000fd5b50565b60035481565b60005481565b60003073ffffffffffffffffffffffffffffffffffffffff1631905090565b33600160006101000a81548173ffffffffffffffffffffffffffffffffffffffff021916908373ffffffffffffffffffffffffffffffffffffffff16021790555034600081905550600a60005481151561025a57fe5b046003819055505600a165627a7a7230582045903f5b6458f4d48a75e252f550dfa0a76d5e10c77c774a636cd3d9e18c14b90029",
  "source": "pragma solidity ^0.4.24;\n\ncontract Trust {\n\n    uint public amount = 120;\n    address owner;\n    uint timeInterval = now;\n    uint public payment;\n\n    modifier onlyOwner {\n        require(owner == msg.sender);\n        _;\n    }\n\n    modifier timeForPayment {\n        require(now >= timeInterval + 1 minutes);\n        timeInterval = now + 1 minutes;\n        _;\n    }\n\n    function initialAmount() public payable {\n        owner = msg.sender;\n        amount = msg.value;\n        payment = amount / 10;\n    }\n\n    function withDraw() onlyOwner timeForPayment public {\n        msg.sender.transfer(payment);\n\n    }\n\n    function balance() public view returns (uint) {\n        return address(this).balance;\n    }\n}\n",
  "sourcePath": "/Users/spar/truffle/trust/contracts/Trust.sol",
  "compiler": {
    "name": "solc",
    "version": "0.4.24+commit.e67f0147.Emscripten.clang"
  },
  "schemaVersion": "2.0.1",
  "updatedAt": "2018-11-25T21:18:17.778Z"
}