{
  "contractName": "Trust",
  "abi": [
    {
      "inputs": [],
      "payable": true,
      "stateMutability": "payable",
      "type": "constructor"
    },
    {
      "constant": false,
      "inputs": [],
      "name": "withDraw",
      "outputs": [],
      "payable": false,
      "stateMutability": "nonpayable",
      "type": "function"
    },
    {
      "constant": true,
      "inputs": [],
      "name": "balance",
      "outputs": [
        {
          "name": "",
          "type": "uint256"
        }
      ],
      "payable": false,
      "stateMutability": "view",
      "type": "function"
    }
  ],
  "bytecode": "0x608060405242600255600060035533600160006101000a81548173ffffffffffffffffffffffffffffffffffffffff021916908373ffffffffffffffffffffffffffffffffffffffff16021790555034600081905550600a60005481151561006357fe5b046003819055506101a3806100796000396000f30060806040526004361061004c576000357c0100000000000000000000000000000000000000000000000000000000900463ffffffff1680630fdb1c1014610051578063b69ef8a814610068575b600080fd5b34801561005d57600080fd5b50610066610093565b005b34801561007457600080fd5b5061007d610158565b6040518082815260200191505060405180910390f35b3373ffffffffffffffffffffffffffffffffffffffff16600160009054906101000a900473ffffffffffffffffffffffffffffffffffffffff1673ffffffffffffffffffffffffffffffffffffffff161415156100ef57600080fd5b603c60025401421015151561010357600080fd5b603c42016002819055503373ffffffffffffffffffffffffffffffffffffffff166108fc6003549081150290604051600060405180830381858888f19350505050158015610155573d6000803e3d6000fd5b50565b60003073ffffffffffffffffffffffffffffffffffffffff16319050905600a165627a7a72305820960c4962b93156d9258b61d131c40d9fad6f5bc88898b8322859591393c2729a0029",
  "source": "pragma solidity ^0.4.24;\n\ncontract Trust {\n\n    uint private amount;\n    address owner;\n    uint timeInterval = now;\n    uint payment = 0;\n\n    modifier onlyOwner {\n        require(owner == msg.sender);\n        _;\n    }\n\n    modifier timeForPayment {\n        require(now >= timeInterval + 1 minutes);\n        timeInterval = now + 1 minutes;\n        _;\n    }\n\n    constructor () public payable {\n        owner = msg.sender;\n        amount = msg.value;\n        payment = amount / 10;\n    }\n\n    function withDraw() onlyOwner timeForPayment public {\n        msg.sender.transfer(payment);\n\n    }\n\n    function balance() public view returns (uint) {\n        return address(this).balance;\n    }\n}\n",
  "sourcePath": "/Users/spar/truffle/trust/contracts/Trust.sol",
  "compiler": {
    "name": "solc",
    "version": "0.4.24+commit.e67f0147.Emscripten.clang"
  },
  "schemaVersion": "2.0.1",
  "updatedAt": "2018-11-20T22:30:44.437Z"
}